:020000040000FA
:100000000C946A000C9478090C9451090C94920099
:100010000C9492000C9492000C9492000C945B0A45
:100020000C9492000C9492000C9492000C949F09F2
:100030000C9492000C9492000C9492000C949200F8
:100040000C9407090C9492000C94D5080C94AF08FA
:100050000C9492000C9492000C9492000C949200D8
:100060000C9492000C949200000001000800200003
:10007000400080000001050D000000002300260064
:10008000290000000000240027002A0000000000D2
:10009000250028002B0004040404040404040202C4
:1000A00002020202030303030303010204081020F7
:1000B0004080010204081020010204081020000002
:1000C0000008000201000003040700000000000017
:1000D0000000A90B11241FBECFEFD8E0DEBFCDBFBB
:1000E00011E0A0E0B1E0E6E3F0E202C005900D927D
:1000F000A839B107D9F723E0A8E9B1E001C01D9202
:10010000A138B207E1F710E0CAE6D0E004C02197B9
:10011000FE010E94E00EC936D107C9F70E94950C76
:100120000C9419100C940000AF92BF92CF92DF9202
:10013000EF92FF920F931F93CF93DF936C017B019C
:100140008B01040F151FEB015E01AE18BF08C0172D
:10015000D10759F06991D601ED91FC910190F081A0
:10016000E02DC6010995892B79F7C501DF91CF9163
:100170001F910F91FF90EF90DF90CF90BF90AF90C5
:100180000895FC01538D448D252F30E0842F90E09D
:10019000821B930B541710F0CF9608950197089582
:1001A000FC01918D828D981761F0A28DAE0FBF2F4B
:1001B000B11D5D968C91928D9F5F9F73928F90E0A1
:1001C00008958FEF9FEF0895FC01918D828D981710
:1001D00031F0828DE80FF11D858D90E008958FEF4D
:1001E0009FEF0895FC01918D228D892F90E0805C16
:1001F0009F4F821B91098F73992708958BEA91E095
:100200000E94F20021E0892B09F420E0822F08955A
:1002100080E090E0892B29F00E94FE0081110C946F
:1002200000000895FC01A48DA80FB92FB11DA35A99
:10023000BF4F2C91848D90E001968F739927848F06
:10024000A689B7892C93A089B1898C918370806429
:100250008C93938D848D981306C00288F389E02DCA
:1002600080818F7D80830895EF92FF920F931F937B
:10027000CF93DF93EC0181E0888F9B8D8C8D981359
:100280001AC0E889F989808185FF15C09FB7F89465
:10029000EE89FF896083E889F989808183708064B1
:1002A00080839FBF81E090E0DF91CF911F910F91FC
:1002B000FF90EF900895F62E0B8D10E00F5F1F4F0B
:1002C0000F731127E02E8C8D8E110CC00FB607FC1A
:1002D000FACFE889F989808185FFF5CFCE010E94A8
:1002E0001201F1CFEB8DEC0FFD2FF11DE35AFF4F03
:1002F000F0829FB7F8940B8FEA89FB898081806236
:10030000CFCFCF93DF93EC01888D8823B9F0AA89F2
:10031000BB89E889F9898C9185FD03C0808186FDC0
:100320000DC00FB607FCF7CF8C9185FFF2CF80810F
:1003300085FFEDCFCE010E941201E9CFDF91CF9171
:100340000895833081F028F4813099F08230A9F04B
:1003500008958730A9F08830C9F08430B1F48091D5
:1003600080008F7D03C0809180008F778093800014
:10037000089584B58F7784BD089584B58F7DFBCFB4
:100380008091B0008F778093B00008958091B00085
:100390008F7DF9CF1F93CF93DF93282F30E0F901A2
:1003A000E254FF4F8491F901E655FF4FD491F901D2
:1003B000EA56FF4FC491CC23A9F0162F81110E9459
:1003C000A101EC2FF0E0EE0FFF1FE457FF4FA591C6
:1003D000B4918FB7F894EC91111108C0D095DE2339
:1003E000DC938FBFDF91CF911F910895DE2BF8CF63
:1003F000CF93DF9390E0FC01E655FF4F24918A569E
:100400009F4FFC0184918823D1F090E0880F991FC1
:10041000FC01EE57FF4FA591B491FC01E457FF4F4B
:10042000C591D49161110EC09FB7F8948C91E22FC1
:10043000E0958E238C932881E223E8839FBFDF9190
:10044000CF9108958FB7F894EC91E22BEC938FBF86
:10045000F6CF1F93CF93DF93182FEB0161E00E943B
:10046000F801209739F460E0812FDF91CF911F913F
:100470000C94CA01E12FF0E0E254FF4FE491E33025
:1004800039F148F4E130B9F0E230E9F0C038D10593
:1004900054F361E0E9CFE73029F1E83059F1E43075
:1004A000A9F780918000806280938000D0938B00B8
:1004B000C0938A0004C084B5806884BDC7BDDF9145
:1004C000CF911F91089584B5806284BDC8BDF7CFD8
:1004D00080918000806880938000D0938900C093D1
:1004E0008800EDCF8091B00080688093B000C09309
:1004F000B300E5CF8091B00080628093B000C093DC
:10050000B400DDCF3FB7F8948091A4019091A5018C
:10051000A091A601B091A70126B5A89B05C02F3FC9
:1005200019F00196A11DB11D3FBFBA2FA92F982F19
:100530008827BC01CD01620F711D811D911D42E014
:10054000660F771F881F991F4A95D1F708958F92DC
:100550009F92AF92BF92CF92DF92EF92FF926B0188
:100560007C010E9482024B015C01C114D104E104B0
:10057000F104B9F00E948202681979098A099B097D
:10058000683E73408105910580F321E0C21AD108CD
:10059000E108F10888EE880E83E0981EA11CB11CCA
:1005A000E4CFFF90EF90DF90CF90BF90AF909F90FF
:1005B0008F9008952FB7F8946091A0017091A101D8
:1005C0008091A2019091A3012FBF08950895CF9229
:1005D000DF92EF92FF92CF93DF93EC01603282E0E3
:1005E0007807CCF5653B710514F064EB70E0898108
:1005F00028E830E0281B310987FD3395220F331F8F
:10060000220F331F6901330FEE08FF088A8128E5A6
:1006100032E0281B310987FD3395220F331F220F4B
:10062000331F032E000C440B550B2C193D094E09AA
:100630005F09DB0177FF02C0B0E0A0E00E949B0EE3
:1006400024EB30E040E050E00E94710EC20ED31E59
:10065000E41EF51EB601E881EC3070F5298188E8CA
:1006600090E0821B910927FD9395880F991F880FB1
:10067000991F681779077CF02A8188E592E0821B30
:10068000910927FD9395880F991F880F991F681767
:1006900079070CF4CB010297880F991F4FB7F89494
:1006A0002E2F30E0F901EE0FFF1FE20FF31FEE5A7D
:1006B000FD4F928381834FBFDF91CF91FF90EF90E9
:1006C000DF90CF9008951F93CF93DF93EC01162F07
:1006D00088818C3008F04EC061E0812F0E94F801C3
:1006E0008881282F30E0F901EE0FFF1FE20FF31F82
:1006F000EE5AFD4F1F736081607C612B608319820D
:100700001A822CE0622F0E94D40E829FB001112425
:1007100030E020E0AB01420F531FFA01EE0FFF1F44
:10072000E40FF51FEE5AFD4F908196FD16C02F5F26
:100730003F4F2C30310571F781110FC010928000AE
:1007400082E0809381001092850010928400B19A1B
:1007500080916F00826080936F00E8818E2F90E01F
:10076000FC01EE0FFF1FE80FF91FEE5AFD4F8081CD
:10077000806480838881DF91CF911F9108950895CF
:100780008CE30895CF93DF93FC01228133812230E3
:10079000310569F0EC01678D858D0E94CA0160E02A
:1007A0008C8D0E94CA0182E090E09B838A83DF9156
:1007B000CF91089581E008952FB7F89491E06623D2
:1007C00039F092E0613021F082E080939B0190E06B
:1007D00080919A01892B80939A0180919B018111CC
:1007E00003C081E080939B012FBF089580919B01FE
:1007F000882361F09FB7F89420919B018091990123
:10080000213019F48DBB9FBF08958FBF0895FC015F
:100810003085218580919B01882381F09FB7F894D2
:1008200080919B01813069F48DB3809399014DB320
:1008300080919A01809584238DBB9FBF3CBD2DBDC7
:10084000089590939901FACF9FB7F89480919801F9
:10085000882319F08150809398018091980181112B
:1008600005C08CB58F7B8CBD10929B019FBF0895F6
:100870008CB58F778CBD08958CB580688CBD08953C
:100880006EBD00000DB407FEFDCF8EB50895FC01CE
:10089000738362830895FC01778366830895FC0166
:1008A00075836483089508950895FC01848995896A
:1008B0000895FC01828993890895FC0180899189BA
:1008C000089580E00895FC01738362830895FC011C
:1008D000828193810895FC01868597850895FC01A6
:1008E00081850895FC0180850895FC018781089524
:1008F000FC01868108954095FC0125854223642BE7
:1009000065870895FC0164870895FC016387089555
:10091000FC0162870895FC0164830895FC016583EE
:1009200008958F929F92AF92BF92CF92DF92EF92F3
:10093000FF92CF93DF93EC016B010E94DA024B012F
:100940005C01F12CE12C0E94DA02681979098A090C
:100950009B096C157D058E059F0580F48A819B811E
:10096000039789F381E0DF91CF91FF90EF90DF90C3
:10097000CF90BF90AF909F908F90089580E0F3CF7D
:10098000FC012281338123303105D1F381E00895C8
:100990004F925F926F927F928F929F92AF92BF928F
:1009A000CF92DF92EF92FF920F931F93CF93DF933B
:1009B000EC016B018A010E94DA022B013C01F12C4F
:1009C000E12C4801B12CA12C0E94DA0264197509AE
:1009D000860997096C157D058E059F0588F4E881C9
:1009E000F9810680F781E02DCE010995811109C0BA
:1009F0000115110549F3C501B4010E94A702E4CF16
:100A000080E0DF91CF911F910F91FF90EF90DF90E9
:100A1000CF90BF90AF909F908F907F906F905F909E
:100A20004F900895CF92DF92EF92FF920F931F9312
:100A3000CF93DF93EC018B016B01F12CE12CE8816A
:100A4000F9810680F781E02DCE010995811108C05A
:100A500001151105A1F3C701B6010E94A702EFCF4E
:100A6000DF91CF911F910F91FF90EF90DF90CF908A
:100A70000895862720E1829FB00111248627482F00
:100A800050E0292F382FCA0164E0959587956A9523
:100A9000E1F728273927CA0173E0880F991F7A9553
:100AA000E1F78227932708956F927F928F929F920A
:100AB000AF92BF92CF92DF92EF92FF920F931F936C
:100AC000CF93DF934D3388F0712C872DDF91CF9139
:100AD0001F910F91FF90EF90DF90CF90BF90AF905C
:100AE0009F908F907F906F900895042F5B01EC0191
:100AF000E881F9810088F189E02D0995E881F98183
:100B00000688F789E02DCE010995782E8823E1F239
:100B10007E0129E7E20EF11C17E0100F612F8FEF25
:100B20009FEF0E943905E12FF0E064E0F595E7952D
:100B30006A95E1F7EA5EFE4F2081F70120831F707E
:100B4000E12FF0E0EA5EFE4F2081FE01E658FF4F04
:100B500020831A85612F0E943905E12FF0E074E0AF
:100B6000F595E7957A95E1F7EA5EFE4F2081FE0163
:100B7000E558FF4F20831F70E12FF0E0EA5EFE4F43
:100B80002081FE01E458FF4F20831B85612F0E94C6
:100B90003905E12FF0E0A4E0F595E795AA95E1F796
:100BA000EA5EFE4F2081FE01E358FF4F20831F7055
:100BB000E12FF0E0EA5EFE4F2081FE01E258FF4F98
:100BC00020831C85612F0E943905E12FF0E0B4E0FD
:100BD000F595E795BA95E1F7EA5EFE4F2081FE01B3
:100BE000E158FF4F20831F70E12FF0E0EA5EFE4FD7
:100BF0002081FE01E058FF4F20831D85612F0E9458
:100C00003905E12FF0E024E0F595E7952A95E1F725
:100C1000EA5EFE4F2081FE01EF57FF4F20831F70D9
:100C2000E12FF0E0EA5EFE4F2081FE01EE57FF4F1C
:100C300020836501470110E0A00EB11EF2E08F0E87
:100C4000911CCA14DB04E9F0F60161906F01662D76
:100C50000E943905E62DF0E054E0F595E7955A95A8
:100C6000E1F7EA5EFE4F2081F4012087F60131971B
:100C7000E081EF70F0E0EA5EFE4F2081F401218711
:100C8000DDCF98012B5F3F4F220F331F809590954A
:100C9000D701A20FB31FFC0154E0F695E7955A95D2
:100CA000E1F7EF70FF27EA5EFE4F30813C93F801D9
:100CB000EE0FFF1FBF016E0D7F1DAC014F7055275A
:100CC0004A5E5E4FFA013081FB0133870A5F1F4F96
:100CD000000F111F0E0D1F1DFC01EF2FFF27E295C6
:100CE000EF70EA5EFE4F3081F8013083E92FFF2775
:100CF000EF70FF27EA5EFE4F808113968C93FE0112
:100D0000E150FF4F245F20838A819B81039709F480
:100D1000DCCEE159F10910823196108231961082B1
:100D20006F8D81E068278D8D0E94CA0183E090E07D
:100D30009B838A83CACEEF92FF921F93CF93DF9358
:100D4000FC01228133812330310509F452C0EC01CA
:100D500082819381049761F0678D858D0E94CA011D
:100D600060E08C8D0E94CA0184E090E09B838A83BE
:100D700088A18823E9F010E08FEF9FEF7E01FDE668
:100D8000EF0EF11CF7012081121740F4FE01E10F74
:100D9000F11D61A50E9439051F5FF4CF883B904F7C
:100DA00071F0888999890196998B888B19A218A26C
:100DB00089A1DF91CF911F91FF90EF9008958AA5AF
:100DC0008E838BA58F838CA588878DA589878D8140
:100DD000811107C09E818C81981719F08E818F3FF9
:100DE00031F78A899B8901969B8B8A8B81E089A345
:100DF000DECF80E0DECF0E940B100C94820FDF92DA
:100E0000EF92FF920F931F93CF93DF93EC017B013F
:100E10008A01E881F9810680F781E02D0995D82EB5
:100E20008823D1F0E114F104B1F00115110599F016
:100E3000FE01E359FF4F80818750F80190818917A7
:100E400008F48083F801408150E0BE01625D7F4F6D
:100E5000C7010E94101019A28D2DDF91CF911F9113
:100E60000F91FF90EF90DF9008954F925F926F92F5
:100E70007F92AF92BF92CF92DF92EF92FF921F9339
:100E8000CF93DF9300D0CDB7DEB77C0190939D0167
:100E900080939C0161E0FC01848D0E94F80160E078
:100EA000F701838D0E94F80161E0F701858D0E94B2
:100EB000F801C7010E94C203F701C18CD28CC11492
:100EC000D10409F444C0F12CE12C83E0CC0CDD1CEE
:100ED000EE1CFF1C8A95D1F79AE6A92E90E0B92E58
:100EE00011E0412C24E2522E24EF622E712C42E0BC
:100EF00050E0B501CE0101960E94680E29813A8129
:100F000050E040E0C301B2010E94A30ECA01B90142
:100F1000A70196010E94A30EDA01C9010297A10957
:100F2000B1098D3F9105A105B10510F11F5FF2E0F8
:100F3000AF0EB11C1830D9F62230310541055105EC
:100F400030F02F3F310541055105A1F098F081E0C7
:100F50000F900F90DF91CF911F91FF90EF90DF9056
:100F6000CF90BF90AF907F906F905F904F9008951B
:100F7000163069F382E08093B0001093B1002093A3
:100F8000B30080917000826080937000E0CF0F9377
:100F90001F93CF93FC018281938140E054E264EF80
:100FA00070E084309105C1F040E052E16AE770E002
:100FB0008330910589F040E059E06DE370E08230C4
:100FC000910551F040E452E46FE070E0019721F4A4
:100FD00040E854E86EE170E0A481B5818681978194
:100FE000009709F466C08130910509F45EC0823033
:100FF000910509F45CC0039709F05BC08CE000E048
:1010000012E12AE730E090E04017510762077307CA
:1010100040F436952795179507959F5F9630A1F771
:1010200097E021E0292730E5119709F430E726956C
:10103000282B232B2087909591709187CFB7F89418
:1010400080919801811127C0E0EAF0E08491E4EBFF
:10105000F0E09491E82FF0E0EE0FFF1FEE57FF4F06
:10106000A591B491EC91E92321F461E08AE00E941A
:10107000CA0161E08AE00E94F8018CB580618CBDF4
:101080008CB580648CBD61E08DE00E94F80161E068
:101090008BE00E94F801809198018F5F8093980106
:1010A000CFBFCF911F910F91089584E0A8CF88E022
:1010B000A6CF80E0A4CF8F929F92AF92BF92CF92A3
:1010C000DF92EF92FF92CF93DF93FC012789308D5F
:1010D000232BB9F1EC010E94DA024B015C0189E09B
:1010E000C82ED12CE12CF12CE881F981008CF18DF6
:1010F000E02DCE010995882321F10E94DA02AB018F
:10110000BC01481959096A097B098F89988DB0E09B
:10111000A0E084179507A607B707F8F00E94100E05
:10112000A70196010E94710E9B01AC012F5F3F4FFA
:101130004F4F5F4FA4E6B0E00E94900E0E94A702BE
:10114000D3CF81E0DF91CF91FF90EF90DF90CF90F0
:10115000BF90AF909F908F90089580E0F3CF1F9243
:101160000F920FB60F9211242F933F934F935F93DB
:101170006F937F938F939F93AF93BF93EF93FF935F
:101180008BEA91E00E941201FF91EF91BF91AF9124
:101190009F918F917F916F915F914F913F912F918F
:1011A0000F900FBE0F901F9018951F920F920FB6C1
:1011B0000F9211242F938F939F93EF93FF93E091BE
:1011C000BB01F091BC018081E091C101F091C201AD
:1011D00082FD1BC090818091C4018F5F8F7320912D
:1011E000C501821741F0E091C401F0E0E555FE4FE2
:1011F000958F8093C401FF91EF919F918F912F91D3
:101200000F900FBE0F901F9018958081F4CF1F9202
:101210000F920FB60F9211242F933F938F939F93AA
:10122000AF93BF938091A0019091A101A091A201E1
:10123000B091A30130919F0123E0230F2D3758F582
:101240000196A11DB11D20939F018093A001909351
:10125000A101A093A201B093A3018091A401909158
:10126000A501A091A601B091A7010196A11DB11DF4
:101270008093A4019093A501A093A601B093A70128
:10128000BF91AF919F918F913F912F910F900FBE82
:101290000F901F90189526E8230F0296A11DB11DEF
:1012A000D2CF1F920F920FB60F9211242F933F931C
:1012B0004F935F936F937F938F939F93AF93BF935E
:1012C000EF93FF93E0910201F09103010995FF91E3
:1012D000EF91BF91AF919F918F917F916F915F91AE
:1012E0004F913F912F910F900FBE0F901F90189527
:1012F0001F920F920FB60F9211242F933F934F938B
:101300005F936F937F938F939F93AF93BF93EF936D
:10131000FF93E0910001F09101010995FF91EF9198
:10132000BF91AF919F918F917F916F915F914F91FD
:101330003F912F910F900FBE0F901F9018951F9205
:101340000F920FB60F9211242F933F934F935F93F9
:101350006F937F938F939F93AF93BF93CF93DF93BD
:10136000EF93FF9380919E01C0917602D0E087FFBA
:1013700024C0109285001092840080919E018F5F9E
:1013800080939E0180919E01082E000C990B8C1772
:101390009D0724F480919E018C30C4F180918400DB
:1013A00090918500049680349C4908F47AC080911D
:1013B000840090918500049676C080919E01082E4D
:1013C000000C990B8C179D07C4F6E0919E018E2F9F
:1013D000EE0F990BFC01EE0FFF1FE80FF91FEE5AFD
:1013E000FD4F808186FFC9CFE0919E018E2FEE0FC9
:1013F000990BFC01EE0FFF1FE80FF91FEE5AFD4F8E
:10140000808160E08F730E94CA01B7CF2091840071
:1014100030918500E0919E018E2FEE0F990BFC011B
:10142000EE0FFF1FE80FF91FEE5AFD4F81819281E9
:10143000820F931F9093890080938800E0919E0112
:101440008E2FEE0F990BFC01EE0FFF1FE80FF91F17
:10145000EE5AFD4F808186FF11C0E0919E018E2FD4
:10146000EE0F990BFC01EE0FFF1FE80FF91FEE5A6C
:10147000FD4F808161E08F730E94CA01FF91EF915F
:10148000DF91CF91BF91AF919F918F917F916F919C
:101490005F914F913F912F910F900FBE0F901F9032
:1014A000189580E49CE990938900809388008FEFE1
:1014B00080939E01E3CF1F920F920FB60F921124DB
:1014C000CF92DF92EF92FF920F931F932F933F9350
:1014D0004F935F936F937F938F939F93AF93BF933C
:1014E000CF93DF93EF93FF93C0919C01D0919D0127
:1014F0008A819B81049709F0E1C02B8D30E0F901CE
:10150000E254FF4F8491F901E655FF4F0491F90130
:10151000EA56FF4F1491112379F081110E94A10125
:10152000E12FF0E0EE0FFF1FE858FF4FA591B491B7
:10153000EC910E2381E009F480E081702E8D982FCC
:101540009227821719F08BA18F5F8BA38AA189172D
:10155000F1F18CA12DE1803508F42BE08CA1820FF4
:101560008CA39AA38CA1803A08F46DC08EA19FA190
:10157000969587959FA38EA38BA1853028F08EA189
:101580009FA198609FA38EA38CA1805A8CA31BA2BD
:101590008DA1882309F486C088A58F5F88A78C3029
:1015A00008F451C08EA19FA1982F9F73892F869513
:1015B0008695887028E0280F281769F0E82FF0E05A
:1015C000EA5EFE4F3081931739F08F5FF5CF8CA123
:1015D0008C5E8CA3C7CF80E090E1899F900111249D
:1015E0008EA19FA136E0969587953A95E1F7482F11
:1015F0009595879595958795887098E0980F8917A8
:1016000049F0E82FF0E0EA5EFE4F5081451719F0EF
:101610008F5FF5CF80E0822BDE01A359BF4F9C91F5
:10162000AE0144595F4F911127C0FA018083908128
:10163000973018F090819434F8F01DA28889998928
:101640000196998B888BFF91EF91DF91CF91BF919C
:10165000AF919F918F917F916F915F914F913F914A
:101660002F911F910F91FF90EF90DF90CF900F90EF
:101670000FBE0F901F9018952C9191E0920F9C93A4
:101680002C0F3D2F311DF90181A79C91DA018C911E
:10169000981730F01DA281E088A3CE010E94C203FA
:1016A00018A6D1CF8EA19FA188339B4061F681E01F
:1016B0008DA318A6C359DF4F1882C5CF8A819B819D
:1016C000039709F68E0100591F4FF801808191E0C0
:1016D000980F9083811113C06E01FEE6CF0ED11CCE
:1016E000D601EC91AF56BF4F8C91E81778F0CE0140
:1016F0000E94C2038C899D8901969D8B8C8BD80199
:101700008C91883008F49FCF1C929DCFEC0FFD2F59
:10171000F11DEF58FF4F608170E07E01BFE6EB0ED8
:10172000F11CF701808191E0980F908302C07595BC
:1017300067958A95E2F761708C8D0E94CA01D70186
:101740008C918630E0F21C92F60180818F5F80835D
:10175000D6CFCF93DF93CDB7DEB728970FB6F894E7
:10176000DEBF0FBECDBF1092AE011092AD0188EE6C
:1017700093E0A0E0B0E08093AF019093B001A0931C
:10178000B101B093B20180E391E09093AC018093FA
:10179000AB0185EC90E09093B8018093B70184ECA5
:1017A00090E09093BA018093B90180EC90E090931F
:1017B000BC018093BB0181EC90E09093BE018093CB
:1017C000BD0182EC90E09093C0018093BF0186EC54
:1017D00090E09093C2018093C1011092C4011092D5
:1017E000C5011092C6011092C70110924B021092CF
:1017F0004A0210924D0210924C0210924F02109227
:101800004E0282E491E0909349028093480280E581
:101810008093500210925102809176028C3008F031
:101820007CC091E0980F9093760280937A0390E0C9
:10183000FC01EE0FFF1FE80FF91FEE5AFD4F88EB7A
:101840009BE092838183809176028C3008F069C09E
:1018500091E0980F909376028093770390E0FC01DB
:10186000EE0FFF1FE80FF91FEE5AFD4F88EB9BE0CC
:101870009283818310927A02109279028FEF809383
:101880007B028093810280938202109283021092E5
:101890008402109288021092870210928A0210929B
:1018A000890210928C0210928B0210928F02109279
:1018B0008E028CE591E0909378028093770280ED20
:1018C00097E090939102809390028BE08093920234
:1018D0008CE0809393028AE08093940210929502A8
:1018E0001092960288E0EEE0F1E0DE0111960190A0
:1018F0000D928A95E1F788E0FE013196A8EEB2E0FC
:1019000001900D928A95E1F728960FB6F894DEBF04
:101910000FBECDBFDF91CF9108958FEF80937A03F3
:1019200092CF8FEF80937703A5CFCF93DF931F9252
:10193000CDB7DEB7789484B5826084BD84B581600C
:1019400084BD85B5826085BD85B5816085BD80918A
:101950006E00816080936E00109281008091810002
:1019600082608093810080918100816080938100FA
:10197000809180008160809380008091B1008460BC
:101980008093B1008091B00081608093B00080911D
:101990007A00846080937A0080917A0082608093DC
:1019A0007A0080917A00816080937A0080917A0039
:1019B000806880937A001092C10006E211E02CE268
:1019C000C22E21E0D22EF801F1908F0161E08F2D1F
:1019D0000E94F80160E08F2D0E94CA01C016D10656
:1019E00091F787E792E00E94350769E070E08AE7A7
:1019F00093E00E9463036AE070E087E793E00E944F
:101A000063036AE570E08AE793E00E94E7026AE513
:101A100070E087E793E00E94E702E091BB01F0915C
:101A2000BC0182E08083E091B701F091B80110829F
:101A3000E091B901F091BA018FEC80831092C3015B
:101A4000E091BF01F091C00186E08083E091BD018B
:101A5000F091BE01808180618083E091BD01F091B1
:101A6000BE01808188608083E091BD01F091BE015C
:101A7000808180688083E091BD01F091BE0180810A
:101A80008F7D808383E0D82E90E0E92E90E0F92EC0
:101A9000D982AE014F5F5F4F68EA71E087E792E05D
:101AA0000E94FF06882369F11091A8010091A90105
:101AB0006091AA0170E08AE793E00E94E702602F3C
:101AC00070E087E793E00E94E70210FD25C061E027
:101AD00082E00E94CA0160E084E00E94CA0161E0E5
:101AE00087E00E94CA0160E088E00E94CA0168ECB9
:101AF00070E083E00E94290268EC70E085E00E94BB
:101B00002902E114F10421F20E94FE00882309F465
:101B1000BFCF0E940000BCCF11FD0EC060E082E08C
:101B20000E94CA0161E084E00E94CA0160E087E08F
:101B30000E94CA0161E0D8CF12FD06C060E082E0D9
:101B40000E94CA0161E0C8CF13FD06C061E082E0D7
:101B50000E94CA0160E0E7CF60E082E00E94CA0113
:101B600060E084E00E94CA0160E087E00E94CA0150
:101B700060E088E00E94CA0170E060E083E00E94BB
:101B8000290270E060E0BACF8F929F92AF92BF922D
:101B9000CF92DF92EF92FF92CF93DF93EC016881B7
:101BA00079818A819B81611571058105910521F4F7
:101BB00064E279ED8BE597E02DE133EF41E050E011
:101BC0000E94710E49015A019B01AC01A7EAB1E4E0
:101BD0000E94900E6B017C01ACEEB4EFA501940164
:101BE0000E949E0EC60ED71EE81EF91EF7FE06C006
:101BF00081E0C81AD108E10880E8F80AC882D982D1
:101C0000EA82FB82C701B6019F77DF91CF91FF90F7
:101C1000EF90DF90CF90BF90AF909F908F900895FE
:101C20008F929F92AF92BF92CF92DF92EF92FF92EC
:101C30006091040170910501809106019091070166
:101C4000611571058105910521F464E279ED8BE55B
:101C500097E02DE133EF41E050E00E94710E490121
:101C60005A019B01AC01A7EAB1E40E94900E6B01FE
:101C70007C01ACEEB4EFA50194010E949E0EC60E4D
:101C8000D71EE81EF91EF7FE06C081E0C81AD1086B
:101C9000E10880E8F80AC0920401D0920501E092C0
:101CA0000601F0920701C701B6019F77FF90EF9000
:101CB000DF90CF90BF90AF909F908F9008956093EA
:101CC0000401709305018093060190930701089524
:101CD000FB01DC0102C005900D9241505040D8F745
:101CE0000895052E97FB1EF400940E94880E57FD60
:101CF00007D00E94A30E07FC03D04EF40C94880E6C
:101D000050954095309521953F4F4F4F5F4F089527
:101D100090958095709561957F4F8F4F9F4F089557
:101D20000E94C50EA59F900DB49F900DA49F800D9D
:101D3000911D11240895B7FF0C94900E0E94900EEF
:101D4000821B930B0895A1E21A2EAA1BBB1BFD0157
:101D50000DC0AA1FBB1FEE1FFF1FA217B307E4078A
:101D6000F50720F0A21BB30BE40BF50B661F771FE2
:101D7000881F991F1A9469F76095709580959095C2
:101D80009B01AC01BD01CF010895A29FB001B39F9B
:101D9000C001A39F700D811D1124911DB29F700D74
:101DA000811D1124911D0895991B79E004C0991F8C
:101DB000961708F0961B881F7A95C9F780950895A5
:101DC000EE0FFF1F0590F491E02D09940F931F93E0
:101DD000CF93DF938230910510F482E090E0E091A0
:101DE0007F03F091800330E020E0B0E0A0E0309786
:101DF00099F42115310509F44AC0281B390B243008
:101E00003105D8F58A819B816115710589F1FB0146
:101E100093838283FE0111C040815181028113812D
:101E200048175907E0F04817590799F4109761F0DF
:101E300012960C93129713961C933296CF01DF9152
:101E4000CF911F910F91089500937F03109380030A
:101E5000F4CF2115310551F04217530738F0A9018D
:101E6000DB019A01BD01DF01F801C1CFEF01F9CF1C
:101E70009093800380937F03CDCFFE01E20FF31F89
:101E8000819391932250310939832883D7CF2091B0
:101E90007D0330917E03232B41F420910A01309180
:101EA0000B0130937E0320937D0320910801309134
:101EB00009012115310541F42DB73EB740910C01C0
:101EC00050910D01241B350BE0917D03F0917E03B1
:101ED000E217F307A0F42E1B3F0B2817390778F001
:101EE000AC014E5F5F4F2417350748F04E0F5F1F60
:101EF00050937E0340937D03819391939FCFF0E0B5
:101F0000E0E09CCFCF93DF930097E9F0FC0132979C
:101F100013821282A0917F03B0918003ED0130E023
:101F200020E01097A1F420813181820F931F20912E
:101F30007D0330917E032817390709F061C0F093C3
:101F40007E03E0937D03DF91CF910895EA01CE17E0
:101F5000DF07E8F54A815B819E0141155105B1F724
:101F6000E901FB83EA8349915991C40FD51FEC170E
:101F7000FD0761F4808191810296840F951FE9012C
:101F800099838883828193819B838A83F0E0E0E058
:101F900012968D919C9113970097B9F52D913C91D4
:101FA0001197CD010296820F931F20917D033091EE
:101FB0007E032817390739F6309751F510928003C0
:101FC00010927F03B0937E03A0937D03BCCFD38395
:101FD000C28340815181840F951FC817D90761F4CE
:101FE0004E5F5F4F88819981480F591F518340830D
:101FF0008A819B81938382832115310509F0B0CFBB
:10200000F0938003E0937F039ECFFD01DC01C0CFFE
:1020100013821282D7CF81E090E0F8940C941910CB
:10202000FB01DC0102C001900D9241505040D8F7F5
:102030000895F894FFCFE602E602010000000000D8
:10204000810380002A2A2A2A2A2A382C0D0E1315E9
:1020500016191A1C232526292A2C323402040708B3
:1020600003050000000034019400C1008101F2006A
:10207000D000E4000000000040043C043804C7071E
:1020800024044F044B0447040704F603DC03000058
:102090000000BF03FD0635079B06FF065405C0037D
:1020A0001205C0049104C8045B0861048B04880411
:1020B000850482047B048E047804750472046F0422
:0E20C0006B046704630461045D045904550455
:107E0000112484B714BE81FFF0D085E080938100F7
:107E100082E08093C00088E18093C10086E0809377
:107E2000C20080E18093C4008EE0C9D0259A86E02C
:107E300020E33CEF91E0309385002093840096BBD3
:107E4000B09BFECF1D9AA8958150A9F7CC24DD24C4
:107E500088248394B5E0AB2EA1E19A2EF3E0BF2EE7
:107E6000A2D0813461F49FD0082FAFD0023811F036
:107E7000013811F484E001C083E08DD089C08234E0
:107E800011F484E103C0853419F485E0A6D080C0E4
:107E9000853579F488D0E82EFF2485D0082F10E0AE
:107EA000102F00270E291F29000F111F8ED06801E7
:107EB0006FC0863521F484E090D080E0DECF843638
:107EC00009F040C070D06FD0082F6DD080E0C81688
:107ED00080E7D80618F4F601B7BEE895C0E0D1E017
:107EE00062D089930C17E1F7F0E0CF16F0E7DF06D8
:107EF00018F0F601B7BEE89568D007B600FCFDCFD4
:107F0000A601A0E0B1E02C9130E011968C91119780
:107F100090E0982F8827822B932B1296FA010C0160
:107F200087BEE89511244E5F5F4FF1E0A038BF0790
:107F300051F7F601A7BEE89507B600FCFDCF97BE46
:107F4000E89526C08437B1F42ED02DD0F82E2BD052
:107F50003CD0F601EF2C8F010F5F1F4F84911BD097
:107F6000EA94F801C1F70894C11CD11CFA94CF0C13
:107F7000D11C0EC0853739F428D08EE10CD085E9AC
:107F80000AD08FE07ACF813511F488E018D01DD067
:107F900080E101D065CF982F8091C00085FFFCCF94
:107FA0009093C60008958091C00087FFFCCF809118
:107FB000C00084FD01C0A8958091C6000895E0E648
:107FC000F0E098E1908380830895EDDF803219F02E
:107FD00088E0F5DFFFCF84E1DECF1F93182FE3DFCA
:107FE0001150E9F7F2DF1F91089580E0E8DFEE27F6
:047FF000FF270994CA
:027FFE00040479
:00000001FF
