:100000000C9473000C949B000C949B000C94FE08C1
:100010000C94FE080C94FE080C949B000C949B001E
:100020000C949B000C949B000C949B000C949B00E4
:100030000C949B000C949B000C949B000C949B00D4
:100040000C94B4080C949B000C9482080C945C08EB
:100050000C949B000C949B000C949B000C949B00B4
:100060000C949B000C949B00005EBCE2613FDD831E
:10007000C29C7E20A3FD1F41009D23BE46DB65F888
:100080008C11AF32CA57E974000000002400270029
:100090002A0000000008000201000003040700001D
:1000A00000000000000000000000250028002B00D8
:1000B00000000000230026002900040404040404B6
:1000C0000404020202020202030303030303010207
:1000D00004081020408001020408102001020408D6
:1000E00010207609780F11241FBECFEFD8E0DEBFB5
:1000F000CDBF11E0A0E0B1E0E8E9F3E202C0059075
:100100000D92AE33B107D9F722E0AEE3B1E001C002
:100110001D92A13AB207E1F710E0C2E7D0E004C0B7
:100120002197FE010E94B911C137D107C9F70E947A
:10013000800A0C94BF110C940000AF92BF92CF9232
:10014000DF92EF92FF920F931F93CF93DF936C0197
:100150007B018B01040F151FEB015E01AE18BF0878
:10016000C017D10759F06991D601ED91FC9101902A
:10017000F081E02DC6010995892B79F7C501DF9142
:10018000CF911F910F91FF90EF90DF90CF90BF9094
:10019000AF900895FC01538D448D252F30E0842FBE
:1001A00090E0821B930B541710F0CF96089501979F
:1001B0000895FC01918D828D981761F0A28DAE0F8C
:1001C000BF2FB11D5D968C91928D9F5F9F73928F13
:1001D00090E008958FEF9FEF0895FC01918D828D3F
:1001E000981731F0828DE80FF11D858D90E008950C
:1001F0008FEF9FEF0895FC01918D228D892F90E064
:10020000805C9F4F821B91098F73992708958BEB18
:1002100091E00E94FB0021E0892B09F420E0822F6D
:10022000089580E090E0892B29F00E940701811158
:100230000C9400000895FC01A48DA80FB92FB11DE6
:10024000A35ABF4F2C91848D90E001968F7399270C
:10025000848FA689B7892C93A089B1898C918370EA
:1002600080648C93938D848D981306C00288F389E3
:10027000E02D80818F7D80830895EF92FF920F9310
:100280001F93CF93DF93EC0181E0888F9B8D8C8D42
:1002900098131AC0E889F989808185FF15C09FB736
:1002A000F894EE89FF896083E889F98980818370F9
:1002B000806480839FBF81E090E0DF91CF911F91A8
:1002C0000F91FF90EF900895F62E0B8D10E00F5FC9
:1002D0001F4F0F731127E02E8C8D8E110CC00FB69F
:1002E00007FCFACFE889F989808185FFF5CFCE0137
:1002F0000E941B01F1CFEB8DEC0FFD2FF11DE35A96
:10030000FF4FF0829FB7F8940B8FEA89FB898081B9
:100310008062CFCF682F8BEB91E00C943D01CF939F
:10032000DF93EC01888D8823B9F0AA89BB89E8891D
:10033000F9898C9185FD03C0808186FD0DC00FB6C3
:1003400007FCF7CF8C9185FFF2CF808185FFEDCF41
:10035000CE010E941B01E9CFDF91CF910895833038
:1003600081F028F4813099F08230A9F00895873027
:10037000A9F08830C9F08430B1F4809180008F7D7D
:1003800003C0809180008F7780938000089584B5AA
:100390008F7784BD089584B58F7DFBCF8091B000A9
:1003A0008F778093B00008958091B0008F7DF9CF52
:1003B0001F93CF93DF93282F30E0F901EE56FF4FC4
:1003C0008491F901E253FF4FD491F901E654FF4FB4
:1003D000C491CC23A9F0162F81110E94AF01EC2FFC
:1003E000F0E0EE0FFF1FEA55FF4FA591B4918FB7D4
:1003F000F894EC91111108C0D095DE23DC938FBFE7
:10040000DF91CF911F910895DE2BF8CFCF93DF932B
:1004100090E0FC01E253FF4F249186549F4FFC0172
:1004200084918823C9F090E0880F991FFC01E85758
:10043000FF4FA591B491FC01EA55FF4FC591D491AE
:1004400061110DC09FB7F8948C91209582238C93F5
:100450008881282328839FBFDF91CF910895623040
:1004600051F49FB7F8943C91822F809583238C930D
:10047000E8812E2BEFCF8FB7F894EC912E2B2C9395
:100480008FBFEACF3FB7F89480917F0190918001B0
:10049000A0918101B091820126B5A89B05C02F3F94
:1004A00019F00196A11DB11D3FBFBA2FA92F982F9A
:1004B0008827BC01CD01620F711D811D911D42E095
:1004C000660F771F881F991F4A95D1F708958F925D
:1004D0009F92AF92BF92CF92DF92EF92FF926B0109
:1004E0007C010E9442024B015C01C114D104E10471
:1004F000F104B9F00E944202681979098A099B093E
:10050000683E73408105910580F321E0C21AD1084D
:10051000E108F10888EE880E83E0981EA11CB11C4A
:10052000E4CFFF90EF90DF90CF90BF90AF909F907F
:100530008F900895DC0180E0615090F09D919827A4
:10054000E92FEF70F0E0E859FF4F2491E92FE29591
:10055000EF70F0E0E858FF4FE491822F8E27ECCF48
:100560000895DC012C911196ED91FC91F894818114
:10057000822B81839281322F30959323928387E05F
:1005800090E00197F1F781818323818383E290E0FA
:100590000197F1F790817894EFECF0E03197F1F763
:1005A000922381E009F480E00895FC0190810180AC
:1005B000F281E02D292F209560FF14C0F8948281EC
:1005C000822382838181892B8183A3E2B0E011970A
:1005D000F1F78281982B9283789487ED90E00197D0
:1005E000F1F70895F8948281822382838181892B97
:1005F0008183AFEFB0E01197F1F78281982B92835E
:1006000078948FE090E0EBCFDF92EF92FF920F9320
:100610001F93CF93DF93EC01D62EE42E08E010E079
:10062000FF24F39461E08D2D8F2109F460E0CE0169
:100630000E94D502FF0C01501109A1F7E11010C072
:10064000F894E981FA819181888180958923818359
:10065000E981FA81928188818095892382837894C7
:10066000DF91CF911F910F91FF90EF90DF90089550
:10067000EF92FF920F931F93CF93DF938C017B0137
:1006800040E065E50E940403E70188E0E80EF11C04
:10069000699140E0C8010E940403CE15DF05C1F74F
:1006A000DF91CF911F910F91FF90EF900895FC0182
:1006B00090810180F281E02DF8948181292F20958D
:1006C0008223818378943DE743E050E0315029F163
:1006D000DA011197F1F780818923C1F3F8948281BF
:1006E000822382838181892B81837894ABE7B7E071
:1006F0001197F1F7F894818182238183A3E1B1E01E
:100700001197F1F78081982381E009F080E07894D7
:10071000E3E6F6E03197F1F7089580E008956F92EF
:100720007F928F929F92AF92BF92CF92DF92EF9281
:10073000FF920F931F93CF93DF938C01EB01809176
:100740008502909186020E945703882309F43FC0D6
:10075000B80180918502909186020E94380340E0A2
:100760006EEB80918502909186020E9404037E01C7
:100770006E0189E0C80ED11C8E01A0908502B09058
:10078000860288E0882E912C712C66246394C50122
:100790000E94B10281117628660CE1E08E1A910860
:1007A000B1F7F80171928F01CE16DF0631F7809113
:1007B0008502909186020E945703813041F4F7012F
:1007C00081917F01811105C0E017F107C1F790E029
:1007D00008C068E0CE010E949A0291E028852813A3
:1007E000F6CF892FDF91CF911F910F91FF90EF905E
:1007F000DF90CF90BF90AF909F908F907F906F9041
:10080000089520918501309186012817390771F4E8
:100810009091830180918401981741F0E0918301C8
:10082000F0E0E25CFE4F808190E008958FEF9FEF53
:1008300008950895EF92FF920F931F93CF93DF9344
:10084000DC015C96ED90FC905D97E114F10479F485
:1008500081E090E013969C938E93129790E080E055
:10086000DF91CF911F910F91FF90EF9008955196D6
:10087000ED91FC91529750968C915097982F9095AE
:100880000FB75E962C915E97122F127021FD609526
:10089000F8942081112319F1282B2083E701219757
:1008A000F1F728E0462F50E0308160FF1AC0382B66
:1008B0003083E7012197F1F7BA01759567952150CB
:1008C00089F7112381F08081892380830FBF5C9693
:1008D0008D919C910197F1F781E090E0C1CF2923A0
:1008E000DCCF3923E5CF9081892BEFCF2091850193
:1008F000309186012817390771F480918401209185
:10090000830190E0805C9F4F821B910960E470E05E
:100910000E948311089590E080E008952091850160
:100920003091860128173907B9F49091830180919D
:100930008401981789F0E0918301F0E0E25CFE4FBA
:1009400080812091830130E02F5F3F4F2F73332749
:100950002093830190E008958FEF9FEF089590E03A
:1009600080E00895CF93C82F6AE58DE592E00E945C
:100970001A0465EA8DE592E00E941A0466E08DE5AE
:1009800092E00E941A0462E88DE592E00E941A0447
:1009900060E08DE592E00E941A0460EA8DE592E045
:1009A0000E941A0460E18DE592E00E941A046C2F07
:1009B0008DE592E00E941A0460E48DE592E0CF910B
:1009C0000C941A04BF92CF92DF92EF92FF920F9392
:1009D0001F93CF93DF93EC01B62EC72E8D85811127
:1009E00005C0CE010E94570381110EC01B861D86D3
:1009F0001C8680E0DF91CF911F910F91FF90EF90C7
:100A0000DF90CF90BF90089540E060EFCE010E944C
:100A1000040301E0E12CD12C11E0CE010E94B102CF
:100A2000F82ECE010E94B10291E0F91218C0813077
:100A300099F51134D8F2DB86D11002C081E08D87A0
:100A40008B81882399F22396EB2DFC2DCF010896FC
:100A500029912193E817F907D9F781E0CBCFEE2D43
:100A6000F0E0F8120FC08B851817A0F4DE01AE0F6E
:100A7000BF1F13968C91802379F4F12C193008F460
:100A80001C87D12EEC0FFD1F8381902F9095892319
:100A900083830AC08113F1CFFE01EE0DF11D838126
:100AA000802B8383FF24F3946F2DCE010E94D50207
:100AB0001F5F000F11F4E39401E087E08E1508F04A
:100AC000ACCFB7CFCF93DF93CDB7DEB761970FB67B
:100AD000F894DEBF0FBECDBFE0918502F091860293
:100AE0001386158614861286118610861782168242
:100AF000158214821382BE01665F7F4F809185024A
:100B0000909186020E94E20481110DC060E070E0C5
:100B10008EEF92EC61960FB6F894DEBF0FBECDBF9C
:100B2000DF91CF91089567E0CE010A960E949A0264
:100B300099898913EBCFBE016F5F7F4FCE010A9673
:100B40000E948F03882311F36A8170E0762F662755
:100B5000770F770F770F298148E0249F90011124A8
:100B6000262B372B8A858031E1F468856623C9F00E
:100B700070E08F81AB01481B5109CA019695982FEF
:100B80008827979587950E948311CB018097B9019B
:100B900053E0660F771F5A95E1F760789C01260FA6
:100BA000371F213854EE35070CF4B0CFB901330F9D
:100BB000880B990B0E944D1020E030E040E05CE390
:100BC0000E940211A7CFCF92DF92EF92FF920F9374
:100BD0001F93CF93DF938091930190919401449759
:100BE00030F484E190E0909394018093930180919C
:100BF000930190919401899730F088E290E090936E
:100C0000940180939301809195019091960197FFB3
:100C100004C01092960110929501809195019091D7
:100C20009601C19734F080E390E090939601809311
:100C300095012091A7013091A80170E060E0211595
:100C4000310571F08091A9019091AA0140918B0129
:100C500050918C01841B950B6CE370E00E946F1126
:100C600070939801609397012115310579F0809177
:100C7000A9019091AA0120918B0130918C01821BD6
:100C8000930B6CE370E00E946F119C0130939A010A
:100C90002093990180919501909196019C01369540
:100CA000279530939C0120939B01817099274EE1F9
:100CB000489F9001499F300D112430939E0120934D
:100CC0009D0180918502909186020E94570340E029
:100CD0006CEC80918502909186020E940403409101
:100CE0007C0264E480918502909186020E94040354
:100CF00080918002882391F1E0917F0280918102AE
:100D0000882309F4E1C080917C028111DDC08FB796
:100D1000F894C0908701D0908801E0908901F0900C
:100D20008A018FBF80918502909186020E94B10254
:100D30008130A1F02FB7F8948091870190918801BC
:100D4000A0918901B0918A012FBF8C199D09AE092C
:100D5000BF098E3E9240A105B10520F30E946205B5
:100D60000E941C107093B4016093B3016091AB01B9
:100D70007091AC0190E080E00E944B106B017C010F
:100D80000E9462059B01AC01C701B6010E941710C9
:100D900018164CF08091A5019091A6018460909363
:100DA000A6018093A5016091AB017091AC0190E028
:100DB00080E00E944B106B017C010E94620520E0E4
:100DC00030E040E450E40E94AA0F9B01AC01C7014F
:100DD000B6010E94FD1018164CF48091A501909167
:100DE000A6018B7F9093A6018093A5016091A50138
:100DF0007091A6017695679576956795617084E008
:100E00000E94D8018091A7019091A801892B09F136
:100E10002091A9013091AA0180918B0190918C01C0
:100E20002817390708F078C060E083E00E94D801F5
:100E300060E085E00E94D8018091A5019091A60113
:100E40008C7F9093A6018093A5011092A801109227
:100E5000A7016AE58DE592E00E941A0465EA8DE536
:100E600092E00E941A046FE28DE592E00E941A045B
:100E700062E88DE592E00E941A0460E18DE592E05F
:100E80000E941A0460E08DE592E00E941A04C1E914
:100E9000D1E00DEB11E0698122968DE592E00E9490
:100EA0001A04FE01329760818DE592E00E941A04D7
:100EB0000C171D0781F7DF91CF911F910F91FF90C4
:100EC000EF90DF90CF900895E9508EEE92E0E330FE
:100ED00038F4F0E0EE0FFF1FE050FF4F808191816A
:100EE0006C01990FEE08FF0880917D02882329F09C
:100EF00060E080917E020E94D801C701B6010E9485
:100F0000670280917D02882309F428CF61E08091F7
:100F10007E020E94D80122CF6091A501617083E01A
:100F20000E94D8016091A5017091A6017695679500
:100F3000617083E00E94D8018CCFDF92EF92FF9224
:100F40000F931F93CF93DF93D0E0C0E0E12C01E03B
:100F500010E020915A0230E0F901EE56FF4F8491E3
:100F6000F901E253FF4FF490F901E654FF4FD4909A
:100F7000DD20A9F081110E94AF01ED2DF0E0EE0F10
:100F8000FF1FE055FF4FA591B491EC91FE2239F07F
:100F9000C8010C2E01C0880F0A94EAF7E82A61E024
:100FA000809159020E94D80160E0809159020E940C
:100FB000D8012196C830D10509F0CBCF8E2DDF9115
:100FC000CF911F910F91FF90EF90DF9008950F93B5
:100FD0001F93CF93DF9301E911E0CAE0D0E0F8015D
:100FE00061810E5F1F4FCE010E949C0FF801329766
:100FF0006081CE0101960E949C0F2296C433D105D8
:1010000071F7DF91CF911F910F9108958F929F9269
:10101000AF92BF920F931F93CF93DF93CDB7DEB7FD
:10102000A1970FB6F894DEBF0FBECDBF19A2423014
:1010300008F44AE08E010F5D1F4F842E912CB12CD5
:10104000A12CA50194010E949711E62FB901CA01B4
:10105000EA3044F5E05DD801EE938D01232B242B7B
:10106000252B79F790E080E0109769F0FD01019061
:101070000020E9F73197AF014A1B5B0BBD018BEBF9
:1010800091E00E949D00A1960FB6F894DEBF0FBEBE
:10109000CDBFDF91CF911F910F91BF90AF909F90E7
:1010A0008F900895E95CD7CF42E050E06AE371E0A9
:1010B0008BEB91E00C949D001F920F920FB60F9254
:1010C00011242F933F934F935F936F937F938F934D
:1010D0009F93AF93BF93EF93FF938BEB91E00E94AD
:1010E0001B01FF91EF91BF91AF919F918F917F91E4
:1010F0006F915F914F913F912F910F900FBE0F9085
:101100001F9018951F920F920FB60F9211242F93D4
:101110008F939F93EF93FF93E091CB01F091CC01DC
:101120008081E091D101F091D20182FD1BC09081BC
:101130008091D4018F5F8F732091D501821741F088
:10114000E091D401F0E0E554FE4F958F8093D401F7
:10115000FF91EF919F918F912F910F900FBE0F9064
:101160001F9018958081F4CF1F920F920FB60F92A7
:1011700011242F933F938F939F93AF93BF938091AD
:10118000870190918801A0918901B0918A013091E5
:101190007E0123E0230F2D3758F50196A11DB11DC7
:1011A00020937E018093870190938801A093890109
:1011B000B0938A0180917F0190918001A09181017B
:1011C000B09182010196A11DB11D80937F01909382
:1011D0008001A0938101B0938201BF91AF919F9153
:1011E0008F913F912F910F900FBE0F901F901895E8
:1011F00026E8230F0296A11DB11DD2CF1F920F9298
:101200000FB60F9211242F933F934F935F936F93D9
:101210007F938F939F93AF93BF93EF93FF93E0914F
:101220008501F0918601309749F0A685B7858585BF
:10123000968D91FF14C09C918923A1F4FF91EF91A9
:10124000BF91AF919F918F917F916F915F914F91DE
:101250003F912F910F900FBE0F901F9018959C916A
:10126000892361F7A389B4899C9185898095892315
:101270008C93868997890197F1F7608D718DA6858A
:10128000B785558538E020E0CB010197F1F7822F33
:1012900090E095958795282F4C91452309F020687B
:1012A000315091F7868D81FD20958091840190E0E9
:1012B00001968F73992730918301381799F0A09187
:1012C0008401B0E0A25CBE4F2C9380938401828D98
:1012D000938D0197F1F7A389B4898C919589892B16
:1012E0008C93ACCF868D8160868FF1CFCF92DF92C9
:1012F000EF92FF921092BE011092BD0198EEC92E9E
:1013000093E0D92EE12CF12CC092BF01D092C00104
:10131000E092C101F092C2018AE191E09093BC0198
:101320008093BB0185EC90E09093C8018093C70146
:1013300084EC90E09093CA018093C90180EC90E026
:101340009093CC018093CB0181EC90E09093CE01FF
:101350008093CD0182EC90E09093D0018093CF01F7
:1013600086EC90E09093D2018093D1011092D40149
:101370001092D5011092D6011092D70160E082E060
:101380000E940602E0EDF0E0E491E0939302ECEBC2
:10139000F0E0E491F0E0EE0FFF1FE055FF4F859184
:1013A0009491909395028093940210929E021092D1
:1013B000A00210929F0210929D0210929C02109225
:1013C0009B0210929A021092990210929802109227
:1013D000970210929602109292021092910210922D
:1013E0007D0283E992E090938602809385021092B9
:1013F00083021092840210927C0289E080937F0223
:1014000061E0609380026093810260938202109297
:10141000600210925F02C0926102D0926202E0927A
:101420006302F09264028CE291E090935E028093FA
:101430005D02109274021092730210927602109262
:101440007502109278021092770210927A0210922E
:10145000790280917B028E7F8D7F80937B028695BF
:101460008170682789E00E94D80161E089E00E94CC
:101470000602E7EDF0E0E491E0936D02E3ECF0E0CA
:10148000E491F0E0EE0FFF1FEA55FF4F8591949134
:1014900090936F0280936E0260E08AE00E940602E1
:1014A00080917B0281FD04C061E08AE00E94D80146
:1014B0008AE080936902E8EDF0E0E491E0936A024B
:1014C000E4ECF0E0E491F0E0EE0FFF1FE055FF4F99
:1014D0008591949190936C0280936B0286E0809347
:1014E000580287E08093590288E080935A02109254
:1014F0005C0210925B02FF90EF90DF90CF90089516
:10150000CF93DF93CDB7DEB7EA970FB6F894DEBF7F
:101510000FBECDBF789484B5826084BD84B58160F0
:1015200084BD85B5826085BD85B5816085BD8091AE
:101530006E00816080936E00109281008091810026
:10154000826080938100809181008160809381001E
:10155000809180008160809380008091B1008460E0
:101560008093B1008091B00081608093B000809141
:101570007A00846080937A0080917A008260809300
:101580007A0080917A00816080937A0080917A005D
:10159000806880937A001092C100109278021092B5
:1015A00077021092760210927502109274021092D5
:1015B00073028FE190E090937A0280937902909188
:1015C0006902963108F047C021E030E030937402A0
:1015D000209373022DE130E0309376022093750260
:1015E0002DE030E03093780220937702209168005C
:1015F00084E0983048F031E09E3008F430E081E03B
:1016000001C0880F3A95EAF7822B809368002DE697
:1016100030E0983050F02BE630E09E3030F02CE691
:1016200030E0963110F030E020E0309371022093EA
:101630007002292F30E0983008F006C181E001C027
:10164000880F9A95EAF780937202809179029091BF
:101650007A020197F1F78091770290917802892BB5
:1016600049F1E0918501F091860122E0ED35F20724
:1016700009F1309739F0A389B4899C9185898095C7
:1016800089238C9380917B028E7F80937B021092C2
:101690008401109283018DE592E0909386018093FE
:1016A0008501E0917002F091710280819091720247
:1016B000892B8083E091CB01F091CC0182E0808383
:1016C000E091C701F091C8011082E091C901F09149
:1016D000CA018FEC80831092D301E091CF01F09189
:1016E000D00186E08083E091CD01F091CE01808130
:1016F00080618083E091CD01F091CE01808188608E
:101700008083E091CD01F091CE018081806880835B
:10171000E091CD01F091CE0180818F7D808361E0E9
:10172000809158020E94060261E0809159020E9455
:10173000060260915B0280915A020E94060260E0FC
:10174000809158020E94D80160E0809159020E9465
:10175000D801E0918502F0918602138615861486E1
:1017600012861186108617821682158214821382C1
:10177000109283021092840211E0BE016D5C7F4FD3
:1017800080918502909186020E94E204882309F4E8
:1017900082C067E0CE01C3960E949A029AAD891377
:1017A000ECCF809183028F5F809383028BA9883274
:1017B00031F008F056C0803111F08232F1F680919C
:1017C00084028F5F8093840280917C02811128C003
:1017D00080918502909186020E945703BE016D5C44
:1017E0007F4F80918502909186020E94380340E0ED
:1017F00064EB80918502909186020E94040380919F
:101800008502909186020E94B102082F8091850284
:10181000909186020E945703011102C010937C022E
:101820008BA9803149F1BE016F5F7F4FCE01C39616
:101830000E948F03882331F08D818F33F9F0C0F43B
:101840008F3129F180E01BC09E3040F428503109CF
:1018500081E001C0880F2A95EAF7F5CE2E503109B4
:10186000F7CF8B3309F4ABCF823409F086CFA7CF03
:101870008F3579F08F3731F78CE001C08AE0909195
:101880007F02981708F079CF80937F0276CF89E0A6
:10189000F6CF8BE0F4CF61E083E00E94060261E0C6
:1018A00085E00E94060261E084E00E940602A1E950
:1018B000EA2EA1E0FA2EBAE0CB2ED12CC6010E946E
:1018C000940F182FC60101960E94940F212F30E02B
:1018D000322F2227820F932F911DF701819391932D
:1018E0007F01F2E0CF0ED11C24E3C216D10431F700
:1018F0000E9454086AE58DE592E00E941A0465EAA8
:101900008DE592E00E941A0467E08DE592E00E9466
:101910001A0462E88DE592E00E941A0460E08DE509
:1019200092E00E941A0460E88DE592E00E941A0499
:101930006AE58DE592E00E941A0464E18DE592E08B
:101940000E941A0463E08DE592E00E941A0460E3AD
:101950008DE592E00E941A040E94E305CE010196F3
:101960006C01AA24A394B12CE8E22E2E312C1AE0AB
:1019700060E0462E60E0562E2FB7F89480918701E4
:1019800090918801A0918901B0918A012FBF409167
:101990008D0150918E0160918F0170919001841B97
:1019A000950BA60BB70B81369A4EA105B10508F42D
:1019B000D6C080915B0290915C02019749F0B09291
:1019C0005C02A0925B0261E080915A020E940602D2
:1019D00061E0809158020E94D80108E05FEBF52E8B
:1019E0006F2D617080915A020E94D80161E0809150
:1019F00059020E94D80160E0809159020E94D801EA
:101A0000F694015069F780915B0290915C02892BFA
:101A100049F010925C0210925B0260E080915A02E1
:101A20000E9406020E949D070E949D07982F929592
:101A300097708F70882E919F800C11240E949D07B3
:101A4000982F929593708F70982E919F900C1124DF
:101A50000E949D07982F929593708F70E82E919F0A
:101A6000E00C11240E949D0784FB992790F98F7048
:101A7000082F919F000D11240E949D070E949D0731
:101A8000982F929597708F70F82E919FF00C1124DB
:101A900060E0809158020E94D801802F90E0FCE025
:101AA000FF9E800D911D11244EE1489F9001499F9A
:101AB000300D1124E20EF32EF11CE8E1EE9DC00181
:101AC000EF9D900D1124890D911D2CE3289FB001ED
:101AD000299F700D1124680D711D70938C01609306
:101AE0008B01072E000C880B990B4AE00E94060818
:101AF0000E9454088091A7019091A801892BC1F000
:101B00002091A9013091AA0180918B0190918C01C3
:101B10002817390708F08EC060E083E00E94D801E2
:101B200060E085E00E94D8011092A8011092A70100
:101B30002FB7F8948091870190918801A091890135
:101B4000B0918A012FBF80938D0190938E01A09355
:101B50008F01B09390010E94E7070E94E3058BEB91
:101B600091E00E94FB00892BD9F031E9E32E31E0AE
:101B7000F32EF701619171917F0190E080E040E1E7
:101B80000E94060880E20E948A018BEB91E00E948D
:101B9000D9008BEB91E08E159F0559F70E945408F0
:101BA0008DE592E00E947604892B09F4C1C08DE591
:101BB00092E00E948E048A35910509F0B9C08DE546
:101BC00092E00E948E04853A910509F0B1C08DE53E
:101BD00092E00E948E047C0196E0E916F10429F05F
:101BE000ECE0EE16F10409F0A3C08DE592E00E944E
:101BF00076048E159F05CCF34601C4018C199D090E
:101C00008E159F050CF069C08DE592E00E948E0450
:101C1000F40181934F019981933809F089C0682FAD
:101C200070E090E080E040E10E94060880E20E94BF
:101C30008A01E3CF6091A50160FF20C0617083E05D
:101C40000E94D8018091A1019091A2018B3391054E
:101C5000F1F101969093A2018093A10121E030E07F
:101C6000892B11F030E020E080919F019091A0013C
:101C7000820F931F9093A00180939F016091A50113
:101C80007091A60161FF54CF76956795617083E0EE
:101C90000E94D8018091B1019091B2018B339105DE
:101CA000C9F001969093B2018093B10121E030E038
:101CB000892B11F030E020E08091A3019091A401E4
:101CC000820F931F9093A4018093A30131CF90E0E2
:101CD00080E0C0CF90E080E0E5CF0E945408F6E0BD
:101CE000EF16F10409F0BCC0AB81EE81A53109F01B
:101CF000ABC0E150E830D0F4F0E0EF57F14F0C9476
:101D0000B911890EA40EC10ECC0ED30EE90EFB0E36
:101D10000E0F80919101909192019093AC0180936C
:101D2000AB010E94E7078FE00E94B2040E94E30526
:101D30004114510409F420CE0E940701882309F4BC
:101D400016CE0E94000013CE20919501309196018D
:101D50004EE1429FC001439F900D112420918B01C1
:101D600030918C01820F931F9093AA018093A90157
:101D7000B092A801A092A70110929601109295012D
:101D8000D0CF8091A5019091A601E1E08E2790939C
:101D9000A6018093A501C7CF8091A5019091A601CE
:101DA000F2E08F27F4CF8FE00E94B204809193017C
:101DB000909194010197909394018093930144979B
:101DC00008F0B4CF84E190E0909394018093930164
:101DD000ADCF8FE00E94B204809193019091940165
:101DE00001969093940180939301899720F030920B
:101DF0009401209293018FE00E94B204809195019A
:101E0000909196010197909396018093950197FF89
:101E10008DCF109296011092950188CF8FE00E948D
:101E2000B20480919501909196010196909396014C
:101E300080939501C19708F479CFE0E3F0E0F09347
:101E40009601E093950172CFE03308F06FCFB0E0D8
:101E5000AA0FBB1FAF56BE4FF0E0ED93FC9366CFC9
:101E60004E01F5E08F0E911C96E0E92E91E0F92EDF
:101E7000F40101914F01602F70E090E080E040E1BB
:101E80000E94060880E20E948A01F7016190719029
:101E90007F01B301072C000C880B990B40E10E94D5
:101EA000060880E20E948A010E9454080615170461
:101EB00009F03ECFF6E1EF16F1E0FF06C9F68AE53C
:101EC0000E94B20481E9E82E81E0F82EF701119218
:101ED00011927F0161E070E080E090E00E94670273
:101EE000FDEBEF16F1E0FF0689F70E94E7071ECF32
:101EF0008CE291E090935E0280935D028091850177
:101F0000909186018D55924071F4E0917002F091AC
:101F10007102908180917202809589238083109252
:101F20008601109285010895F999FECF92BD81BD79
:101F3000F89A992780B50895262FF999FECF1FBAF0
:101F400092BD81BD20BD0FB6F894FA9AF99A0FBEE2
:101F5000019608955058BB27AA270E94C20F0C94DF
:101F6000C3100E94B51038F00E94BC1020F039F464
:101F70009F3F19F426F40C94B2100EF4E095E7FBA1
:101F80000C94AC10E92F0E94D41058F3BA176207D2
:101F900073078407950720F079F4A6F50C94F610E2
:101FA0000EF4E0950B2EBA2FA02D0B01B901900174
:101FB0000C01CA01A0011124FF27591B99F0593FB8
:101FC00050F4503E68F11A16F040A22F232F342F00
:101FD0004427585FF3CF469537952795A795F0404E
:101FE0005395C9F77EF41F16BA0B620B730B840B63
:101FF000BAF09150A1F0FF0FBB1F661F771F881F1B
:10200000C2F70EC0BA0F621F731F841F48F4879572
:1020100077956795B795F7959E3F08F0B0CF939564
:10202000880F08F09927EE0F9795879508950E94DD
:10203000881008F481E008950E94DC1088F09F5712
:1020400098F0B92F9927B751B0F0E1F0660F771FDC
:10205000881F991F1AF0BA95C9F714C0B13091F0D2
:102060000E94F610B1E008950C94F610672F782FB7
:102070008827B85F39F0B93FCCF386957795679597
:10208000B395D9F73EF490958095709561957F4F03
:102090008F4F9F4F0895E89409C097FB3EF49095A9
:1020A0008095709561957F4F8F4F9F4F9923A9F031
:1020B000F92F96E9BB279395F695879577956795C0
:1020C000B795F111F8CFFAF4BB0F11F460FF1BC004
:1020D0006F5F7F4F8F4F9F4F16C0882311F096E997
:1020E00011C0772321F09EE8872F762F05C0662345
:1020F00071F096E8862F70E060E02AF09A95660FFE
:10210000771F881FDAF7880F9695879597F90895B6
:10211000990F0008550FAA0BE0E8FEEF16161706F8
:10212000E807F907C0F012161306E407F50798F060
:10213000621B730B840B950B39F40A2661F0232B79
:10214000242B252B21F408950A2609F4A140A695F5
:102150008FEF811D811D089597F99F6780E870E0DA
:1021600060E008959FEF80EC089500240A9416160D
:10217000170618060906089500240A941216130675
:10218000140605060895092E0394000C11F4882303
:1021900052F0BB0F40F4BF2B11F460FF04C06F5F1F
:1021A0007F4F8F4F9F4F089557FD9058440F551FF5
:1021B00059F05F3F71F04795880F97FB991F61F0C9
:1021C0009F3F79F087950895121613061406551F40
:1021D000F2CF4695F1DF08C0161617061806991FAC
:1021E000F1CF86957105610508940895E894BB27A1
:1021F00066277727CB0197F908950E94881008F485
:102200008FEF08950E9415110C94C3100E94B51011
:1022100038F00E94BC1020F0952311F00C94AC1003
:102220000C94B21011240C94F7100E94D41070F387
:10223000959FC1F3950F50E0551F629FF001729F6B
:10224000BB27F00DB11D639FAA27F00DB11DAA1F7A
:10225000649F6627B00DA11D661F829F2227B00DC7
:10226000A11D621F739FB00DA11D621F839FA00D52
:10227000611D221F749F3327A00D611D231F849FA2
:10228000600D211D822F762F6A2F11249F575040F9
:102290009AF0F1F088234AF0EE0FFF1FBB1F661F74
:1022A000771F881F91505040A9F79E3F510580F03D
:1022B0000C94AC100C94F7105F3FE4F3983ED4F309
:1022C000869577956795B795F795E7959F5FC1F7E1
:1022D000FE2B880F911D9695879597F90895AA1B57
:1022E000BB1B51E107C0AA1FBB1FA617B70710F001
:1022F000A61BB70B881F991F5A95A9F78095909533
:10230000BC01CD01089597FB072E16F4009407D069
:1023100077FD09D00E946F1107FC05D03EF490951F
:1023200081959F4F0895709561957F4F0895A1E223
:102330001A2EAA1BBB1BFD010DC0AA1FBB1FEE1F3F
:10234000FF1FA217B307E407F50720F0A21BB30B8A
:10235000E40BF50B661F771F881F991F1A9469F706
:1023600060957095809590959B01AC01BD01CF0162
:102370000895EE0FFF1F0590F491E02D099410E0F1
:10238000C2E7D0E004C0FE010E94B9112196C33714
:08239000D107C9F7F894FFCF53
:102398005E00BC00770100000000000000000000A3
:1023A80018005B00A100000000003D019D00CA006C
:1023B8008F01FB00D900ED00000000001A049D0009
:0E23C800AF04190476048E0401040D0A00000F
:00000001FF
